{
  "contractName": "storBank",
  "abi": [
    {
      "payable": true,
      "stateMutability": "payable",
      "type": "fallback"
    },
    {
      "constant": false,
      "inputs": [],
      "name": "makeDeposit",
      "outputs": [],
      "payable": true,
      "stateMutability": "payable",
      "type": "function"
    },
    {
      "constant": true,
      "inputs": [],
      "name": "checkBalance",
      "outputs": [
        {
          "name": "balance",
          "type": "uint256"
        }
      ],
      "payable": false,
      "stateMutability": "view",
      "type": "function"
    },
    {
      "constant": false,
      "inputs": [
        {
          "name": "amount",
          "type": "uint256"
        }
      ],
      "name": "makeWithdrawal",
      "outputs": [
        {
          "name": "success",
          "type": "bool"
        }
      ],
      "payable": false,
      "stateMutability": "nonpayable",
      "type": "function"
    }
  ],
  "bytecode": "0x608060405234801561001057600080fd5b50610285806100206000396000f300608060405260043610610057576000357c0100000000000000000000000000000000000000000000000000000000900463ffffffff16806340732c891461005c57806363e52aee14610066578063c71daccb146100ab575b600080fd5b6100646100d6565b005b34801561007257600080fd5b5061009160048036038101908080359060200190929190505050610124565b604051808215151515815260200191505060405180910390f35b3480156100b757600080fd5b506100c0610213565b6040518082815260200191505060405180910390f35b346000803373ffffffffffffffffffffffffffffffffffffffff1673ffffffffffffffffffffffffffffffffffffffff16815260200190815260200160002060008282540192505081905550565b6000816000803373ffffffffffffffffffffffffffffffffffffffff1673ffffffffffffffffffffffffffffffffffffffff1681526020019081526020016000205410151561020957816000803373ffffffffffffffffffffffffffffffffffffffff1673ffffffffffffffffffffffffffffffffffffffff168152602001908152602001600020600082825403925050819055503373ffffffffffffffffffffffffffffffffffffffff166108fc839081150290604051600060405180830381858888f193505050501580156101ff573d6000803e3d6000fd5b506001905061020e565b600090505b919050565b60008060003373ffffffffffffffffffffffffffffffffffffffff1673ffffffffffffffffffffffffffffffffffffffff168152602001908152602001600020549050905600a165627a7a72305820a599bc41c423dd0b24457f14c08fa5a3d5458784e953c60f990dba06471ba0e70029",
  "source": "pragma solidity ^0.4.17;\n\ncontract storBank {\n  //uint myVariable;\n  mapping (address => uint256) balances;\n\n  //function set(uint x) public {\n  //  myVariable = x;\n  //}\n\n  //function get() constant public returns (uint theVariable) {\n  //  return myVariable;\n  //}\n\n  function makeDeposit() public payable {\n    balances[msg.sender] += msg.value;\n  }\n\n  function checkBalance() constant public returns (uint256 balance){\n    return balances[msg.sender];\n  }\n\n\n  function makeWithdrawal(uint256 amount) public returns (bool success) {\n    if (balances[msg.sender] >= amount) {\n      balances[msg.sender] -= amount;\n      msg.sender.transfer(amount);\n      return true;\n    } else {\n      return false;\n    }\n  }\n\n  //fallback\n  function () public payable {\n    revert();\n  }\n\n}\n",
  "sourcePath": "/Users/nknavkal/solidity/store/contracts/bank.sol",
  "compiler": {
    "name": "solc",
    "version": "0.4.24+commit.e67f0147.Emscripten.clang"
  },
  "schemaVersion": "2.0.1",
  "updatedAt": "2018-10-16T00:15:22.444Z"
}